S01700004A313730385F696E746572666163652E73726563E3
S11300000C944A000C945C000C945C000C945C000E
S11300100C945C000C945C000C945C000C945C00EC
S11300200C945C000C945C000C9435030C945C0000
S11300300C945C000C945C000C945C000C945C00CC
S11300400C945C000C9434020C945C000C945C00E2
S11300500C945C000C94E6020C94B1020C945C00C9
S11300600C945C000C945C000C945C000C945C009C
S11300700C945C000C945C000C945C000C945C008C
S11300800C9415010C949D000C945C000C945C0081
S11300900C945C0011241FBECFEFD0E1DEBFCDBFB6
S11300A021E0A0E0B1E001C01D92A93DB207E1F753
S11300B00E948E020C94E4030C94000084B58260C8
S11300C084BDEEE6F0E080818E7F80838FE286BD82
S11300D0089581E08093030110920B018BE08093DB
S11300E00C018FE286BDEEE6F0E0808181608083C2
S11300F0E0912F01F0E080910E01EF5CFE4F8083D0
S1130100809130018F5F8093300180912F018F5F48
S113011080932F0190910E0180910F01890F80939C
S11301200F01089580910F0181958093CE00E0E046
S1130130F1E0118281E0858308951F920F920FB63A
S11301400F9211242F933F934F935F936F937F9359
S11301508F939F93AF93BF93EF93FF93909150012D
S113016080914F018917F8F480914F01E09151017A
S1130170F0915201E80FF11D80818093CE008091AF
S11301804F0190910F01E0915101F0915201E80F5C
S1130190F11D8081890F80930F0180914F018F5F42
S11301A080934F0109C010925001E9ECF0E0808186
S11301B08F7D80830E949200FF91EF91BF91AF9158
S11301C09F918F917F916F915F914F913F912F916B
S11301D00F900FBE0F901F90189580910D018F5FA7
S11301E080930D0180910D01813069F48BE080933F
S11301F00C0110920B018FE286BDEEE6F0E08081E7
S113020081608083089580910D01877080930C0133
S113021010920B018FE286BDEEE6F0E080818160F2
S1130220808381E08093070108951F920F920FB697
S11302300F9211242F933F934F935F936F937F9368
S11302408F939F93AF93BF93EF93FF938091CE00CF
S113025080930E01E0E0F1E01186178210920D0107
S11302608081882341F080910501882351F0108218
S11302701582108606C080910601811102C00E9479
S11302806900809101018823D1F0809106018111D8
S113029011C015C0E0E0F1E081E080831682E9EC52
S11302A0F0E08081806280830AC0109206010E947F
S11302B0ED0005C080910E018038B9F7EBCFFF91B6
S11302C0EF91BF91AF919F918F917F916F915F91CA
S11302D04F913F912F910F900FBE0F901F90189543
S11302E010924F011092500110922F011092300180
S11302F010920F0110920E0110920D01E0E0F1E056
S11303001382118216821286118617821082108639
S113031015821092CD0087E68093CC00E8ECF0E0E3
S113032080818D7F8083E9ECF0E088E9808386E03A
S11303308093CA0080818F7D80830E945E007894C0
S113034008959C0190910101911124C06093500182
S113035010924F0130935201209351018091080172
S1130360811104C080910301882321F081E08093EE
S11303700101089510920B018BE080930C018FE230
S113038086BDEEE6F0E080818160808381E0809329
S11303900801ECCF089580910301811108C080E821
S11303A08093CE0080930F0181E08093060108952D
S11303B0E0E0F1E013828781882339F0109207018D
S11303C010920D010E94CB010895809109018823A8
S11303D029F0109209010E94CB0108958091000137
S11303E0811141C080910F01811103C01092040159
S11303F003C081E08093040180913001882389F057
S113040080E090E0FC01EF5CFE4F2081FC01EF5E98
S1130410FE4F208301962091300130E0821793072C
S11304208CF3809130018093100180911001882316
S113043019F081E080930A0110922F01109230018B
S113044080910101882379F010920B0188E0809358
S11304500C018FE286BDEEE6F0E08081816080834E
S113046081E08093090108951F920F920FB60F92B5
S113047011242F933F934F935F936F937F938F93A5
S11304809F93AF93BF93EF93FF938FE286BD8091C9
S11304900B018F5F80930B0190910B0180910C01F4
S11304A0981309C0EEE6F0E080818E7F808310927D
S11304B00B010E94D801FF91EF91BF91AF919F91E1
S11304C08F917F916F915F914F913F912F910F90F9
S11304D00FBE0F901F90189520910A012223E1F07E
S11304E020911001222381F0E82FF92F80E090E081
S11304F0DC01AF5EBE4F2C91219301962091100137
S113050030E082179307A4F380911001FB018083EC
S113051010920A0180E008958FEF08950E949103DC
S11305200E94700163E571E084E591E00E94AB03F1
S1130530D82F62E771E083E791E00E946C02C82F34
S1130540D11106C06091530184E591E00E94A1019C
S1130550C111E8CF6091720183E791E00E94CE035C
S1130560E1CF1F920F920FB60F9211248F939F9396
S1130570EF93FF939091D7018091D8018917E8F404
S11305808091D801E091D501F091D601E80FF11DD9
S113059080818093C6008091D8018F5F8093D801B9
S11305A09091D8018091D701981307C01092D70178
S11305B0E1ECF0E080818F7D8083FF91EF919F914A
S11305C08F910F900FBE0F901F9018951F920F924E
S11305D00FB60F9211248F93EF93FF938091C6006F
S11305E0E091B601F0E0E954FE4F80838091B601BA
S11305F08F5F8093B6011092910110929201109234
S11306009301109294018FE28093B200E0E7F0E04E
S1130610808181608083FF91EF918F910F900FBE55
S11306200F901F9018958091B601882381F020E0E7
S1130630822F90E0FC01E954FE4F3081FC01E95621
S1130640FE4F30832F5F8091B601281788F3809185
S1130650B6018093B5018091B50180939601109203
S1130660B60181E08093950108951F920F920FB611
S11306700F9211242F933F934F935F936F937F9324
S11306808F939F93AF93BF93EF93FF938FE28093E6
S1130690B2008091910190919201A0919301B09147
S11306A094010196A11DB11D809391019093920133
S11306B0A0939301B0939401809191019091920140
S11306C0A0919301B09194010B97A105B10579F420
S11306D01092910110929201109293011092940140
S11306E0E0E7F0E080818E7F80830E941303FF9116
S11306F0EF91BF91AF919F918F917F916F915F9196
S11307004F913F912F910F900FBE0F901F9018950E
S1130710E0EBF0E08081826080838FE28093B2001E
S113072008951092C50087E68093C4001092D70103
S11307301092D80110929601E0ECF0E080818D7F58
S1130740808388E98093C10086E08093C2000E9480
S1130750880378940895DC01809195018823E1F061
S11307601092950180919601882381F090E0292FC1
S113077030E0F901E956FE4F4081FD01E20FF31F1D
S113078040839F5F20919601921788F38091960190
S1130790FB01808380E008958FEF08959C01909180
S11307A0D70191110FC06093D7011092D8013093F3
S11307B0D6012093D501E1ECF0E080818062808352
S10F07C080E008958FEF0895F894FFCFB7
S9030000FC
