:100000000C944A000C9467000C9467000C946700F1
:100010000C9467000C9467000C9467000C946700C4
:100020000C9467000C9467000C94E1010C94670039
:100030000C9467000C9467000C9467000C946700A4
:100040000C9467000C94E7000C9467000C94670014
:100050000C9467000C9492010C9462010C9467005C
:100060000C9467000C9467000C9467000C94670074
:100070000C9467000C9467000C9467000C94670064
:100080000C9499000C9469000C9467000C94670020
:100090000C94670011241FBECFEFD0E1DEBFCDBFAF
:1000A00011E0A0E0B1E0E8EBF4E002C005900D92B1
:1000B000A830B107D9F721E0A8E0B1E001C01D9256
:1000C000A13BB207E1F70E9450010C945A020C9434
:1000D00000001F920F920FB60F9211248F939F93DF
:1000E000EF93FF9390914B0180914C01891788F415
:1000F00080914C01E0914901F0914A01E80FF11D16
:1001000080818093CE0080914C018F5F80934C0161
:1001100007C010924B01E9ECF0E080818F7D808375
:10012000FF91EF919F918F910F900FBE0F901F90B5
:1001300018951F920F920FB60F9211248F93EF9381
:10014000FF938091CE00E0912A01F0E0E55DFE4F43
:10015000808380912A018F5F80932A018FE286BD80
:1001600010920801EEE6F0E0808181608083FF91CB
:10017000EF918F910F900FBE0F901F90189581E017
:1001800080930901EEE6F0E080818E7F808380918C
:100190002A01882389F080E090E0FC01E55DFE4FB4
:1001A0002081FC01E55FFE4F2083019620912A010A
:1001B00030E0821793078CF380912A018093290104
:1001C0008091290180930A0110922A0108951F92BB
:1001D0000F920FB60F9211242F933F934F935F937B
:1001E0006F937F938F939F93AF93BF93EF93FF93FF
:1001F0008FE286BD809108018F5F80930801809116
:1002000008018A3021F4109208010E94BF00FF917A
:10021000EF91BF91AF919F918F917F916F915F917E
:100220004F913F912F910F900FBE0F901F901895F7
:100230009C0190914B0191110FC060934B01109262
:100240004C0130934A0120934901E9ECF0E08081B0
:100250008062808380E008958FEF089584B5826086
:1002600084BD8FE286BD08951092CD0087E680930D
:10027000CC0010924B0110924C01E8ECF0E0808130
:100280008D7F8083E9ECF0E088E9808386E08093CD
:10029000CA0080818F7D80830E942E01789408950A
:1002A0000E943E020E9434016DE471E08EE491E010
:1002B0000E9413028823C4F367E080E091E00E946B
:1002C0001801F2CF1F920F920FB60F9211248F9345
:1002D0009F93EF93FF939091AF018091B0018917A5
:1002E00088F48091B001E091AD01F091AE01E80F8A
:1002F000F11D80818093C6008091B0018F5F809353
:10030000B00107C01092AF01E1ECF0E080818F7D79
:100310008083FF91EF919F918F910F900FBE0F906F
:100320001F9018951F920F920FB60F9211248F9362
:10033000EF93FF938091C600E0918E01F0E0E157CA
:10034000FE4F808380918E018F5F80938E018FE2BC
:100350008093B20010926C01E0E7F0E08081816050
:100360008083FF91EF918F910F900FBE0F901F90A0
:10037000189581E080936D01E0E7F0E080818E7F49
:10038000808380918E01882389F080E090E0FC01D9
:10039000E157FE4F2081FC01E159FE4F2083019679
:1003A00020918E0130E0821793078CF380918E01AB
:1003B00080938D0180918D0180936E0110928E014A
:1003C00008951F920F920FB60F9211242F933F930F
:1003D0004F935F936F937F938F939F93AF93BF934D
:1003E000EF93FF938FE28093B20080916C018F5F57
:1003F00080936C0180916C018A3021F410926C0121
:100400000E94B901FF91EF91BF91AF919F918F91A0
:100410007F916F915F914F913F912F910F900FBE00
:100420000F901F90189520916D012223E1F01092FA
:100430006D0120916E01222381F0E82FF92F80E0D9
:1004400090E0DC01A159BE4F2C912193019620919F
:100450006E0130E082179307A4F380916E01FB01D7
:10046000808380E008958FEF0895E0EBF0E08081D5
:10047000826080838FE28093B20008951092C5005D
:1004800087E68093C4001092AF011092B001E0ECB7
:10049000F0E080818D7F8083E1ECF0E088E980836B
:1004A00086E08093C20080818F7D80830E94350228
:0804B00078940895F894FFCF41
:0804B8004142434445460A009D
:00000001FF
