S01700004A313730385F696E746572666163652E73726563E3
S11300000C944A000C9467000C9467000C946700ED
S11300100C9467000C9467000C9467000C946700C0
S11300200C9467000C9467000C94E6020C9467002F
S11300300C9467000C9467000C9467000C946700A0
S11300400C9467000C9415020C9467000C946700E0
S11300500C9467000C949D020C9468020C94670045
S11300600C9467000C9467000C9467000C94670070
S11300700C9467000C9467000C9467000C94670060
S11300800C9420010C94A8000C9467000C94670055
S11300900C94670011241FBECFEFD0E1DEBFCDBFAB
S11300A011E0A0E0B1E0E2EDF6E002C005900D92AF
S11300B0A030B107D9F721E0A0E0B1E001C01D9262
S11300C0A93BB207E1F70E944D020C9467030C941C
S11300D0000084B5826084BDEEE6F0E080818E7F0E
S11300E080838FE286BD089581E08093030110929E
S11300F00B018AE080930C018FE286BDEEE6F0E00E
S1130100808181608083E0912F01F0E080910E0175
S1130110EF5CFE4F8083809130018F5F80933001CC
S113012080912F018F5F80932F0190910E01809118
S11301300F01890F80930F01089580910F0181951C
S11301408093CE00E0E0F1E0118281E085830895A0
S11301501F920F920FB60F9211242F933F934F9338
S11301605F936F937F938F939F93AF93BF93EF931B
S1130170FF939091500180914F018917F8F4809179
S11301804F01E0915101F0915201E80FF11D80817E
S11301908093CE0080914F0190910F01E091510125
S11301A0F0915201E80FF11D8081890F80930F01B6
S11301B080914F018F5F80934F0109C010925001CD
S11301C0E9ECF0E080818F7D80830E949D00FF91A7
S11301D0EF91BF91AF919F918F917F916F915F91BB
S11301E04F913F912F910F900FBE0F901F90189534
S11301F080910D018F5F80930D0180910D018130FD
S113020069F48AE080930C0110920B018FE286BDA1
S1130210EEE6F0E0808181608083089580910D0195
S1130220877080930C0110920B018FE286BDEEE67D
S1130230F0E080818160808381E0809307010895EC
S11302401F920F920FB60F9211242F933F934F9347
S11302505F936F937F938F939F93AF93BF93EF932A
S1130260FF938091CE0080930E01E0E0F1E01186CF
S1130270178210920D018081882341F0809105013D
S1130280882351F010821582108606C080910601E1
S1130290811102C00E947400809101018823D1F071
S11302A080910601811111C015C0E0E0F1E081E008
S11302B080831682E9ECF0E08081806280830AC04A
S11302C0109206010E94F80005C080910E0180384A
S11302D0B9F7EBCFFF91EF91BF91AF919F918F91C0
S11302E07F916F915F914F913F912F910F900FBE2E
S11302F00F901F90189510924F0110925001109278
S11303002F011092300110920F0110920E011092E1
S11303100D01E0E0F1E0138211821682128611864B
S113032017821082108615821092CD0087E6809382
S1130330CC00E8ECF0E080818D7F8083E9ECF0E094
S113034088E9808386E08093CA0080818F7D8083E2
S11303500E9469007894089580910301811108C076
S113036080E88093CE0080930F0181E080930601A2
S11303700895E0E0F1E013828781882339F0109238
S1130380070110920D010E94AC01089580910901AA
S1130390882329F0109209010E94AC0108958091EC
S11303A00001811141C080910F01811103C010929D
S11303B0040103C081E0809304018091300188230B
S11303C089F080E090E0FC01EF5CFE4F2081FC01AD
S11303D0EF5EFE4F208301962091300130E08217BA
S11303E093078CF380913001809310018091100168
S11303F0882319F081E080930A0110922F01109252
S1130400300180910101882379F010920B0188E07A
S113041080930C018FE286BDEEE6F0E0808181607E
S1130420808381E08093090108951F920F920FB693
S11304300F9211242F933F934F935F936F937F9366
S11304408F939F93AF93BF93EF93FF938FE286BDF8
S113045080910B018F5F80930B0190910B01809130
S11304600C01981309C0EEE6F0E080818E7F808352
S113047010920B010E94B901FF91EF91BF91AF91CE
S11304809F918F917F916F915F914F913F912F91A8
S11304900F900FBE0F901F9018950E9449030E9461
S11304A07B0103E511E0C1E4D2E40F2EF6ECEF2E5C
S11304B0F12CF02D65E571E086E591E00E941D03C5
S11304C08823C4F3F801C083D183F701C083F2CF3A
S11304D01F920F920FB60F9211248F939F93EF9355
S11304E0FF939091B7018091B8018917E8F4809146
S11304F0B801E091B501F091B601E80FF11D8081DA
S11305008093C6008091B8018F5F8093B801909169
S1130510B8018091B701981307C01092B701E1ECBC
S1130520F0E080818F7D8083FF91EF919F918F9187
S11305300F900FBE0F901F9018951F920F920FB639
S11305400F9211248F93EF93FF938091C600E09153
S11305509601F0E0E956FE4F8083809196018F5F0B
S1130560809396018FE28093B20010927401E0E7C9
S1130570F0E0808181608083FF91EF918F910F90F3
S11305800FBE0F901F90189580919601882381F0DB
S113059020E0822F90E0FC01E956FE4F3081FC01FF
S11305A0E958FE4F30832F5F80919601281788F316
S11305B080919601809395018091950180937601B5
S11305C01092960181E08093750108951F920F9215
S11305D00FB60F9211242F933F934F935F936F9312
S11305E07F938F939F93AF93BF93EF93FF938FE288
S11305F08093B200809174018F5F80937401809125
S113060074018A3049F410927401E0E7F0E08081CB
S11306108E7F80830E94C402FF91EF91BF91AF91BE
S11306209F918F917F916F915F914F913F912F9106
S11306300F900FBE0F901F901895DC0180917501EB
S11306408823E1F01092750180917601882381F06E
S113065090E0292F30E0F901E958FE4F4081FD0177
S1130660E20FF31F40839F5F20917601921788F376
S113067080917601FB01808380E008958FEF0895D7
S1130680E0EBF0E08081826080838FE28093B200AF
S113069008951092C50087E68093C4001092B701B4
S11306A01092B80110927601E0ECF0E080818D7F29
S11306B08083E1ECF0E088E9808386E08093C200E7
S11306C080818F7D80830E94400378940895F894FC
S10506D0FFCF56
S9030000FC
