S01700004A313730385F696E746572666163652E73726563E3
S11300000C944A000C9467000C9467000C946700ED
S11300100C9467000C9467000C9467000C946700C0
S11300200C9467000C9467000C9478000C9467009F
S11300300C9467000C9467000C9467000C946700A0
S11300400C9467000C94E9020C9467000C9467000C
S11300500C9467000C94FA000C94CC000C94670088
S11300600C9467000C9467000C9467000C94670070
S11300700C9467000C9467000C9467000C94670060
S11300800C9407020C94A9010C9467000C9467006B
S11300900C94670011241FBECFEFD0E1DEBFCDBFAB
S11300A011E0A0E0B1E0E6E4F6E002C005900D92B4
S11300B0A830B107D9F721E0A8E0B1E001C01D9252
S11300C0AD32B207E1F70E94BA000C9421030C94FC
S11300D00000E0EBF0E0808182608083E0E7F0E004
S11300E080818160808378948FE28093B200089548
S11300F01F920F920FB60F9211242F938F939F93F9
S1130100AF93BF938FE28093B200809109019091E5
S11301100A01A0910B01B0910C010196A11DB11D22
S11301208093090190930A01A0930B01B0930C01F1
S11301308091090190910A01A0910B01B0910C01E9
S1130140833A9E41A105B10559F481E080930801E9
S11301501092090110920A0110920B0110920C01E5
S1130160BF91AF919F918F912F910F900FBE0F90E0
S11301701F9018950E9469000E945A020E9408016B
S1130180809108018823E1F366E081E091E00E9418
S1130190220110920801F4CF1F920F920FB60F9212
S11301A011248F939F93EF93FF938091100190916B
S11301B00F01891778F4E0910D01F0910E01E80F19
S11301C0F11D80818093C600809110018F5F809320
S11301D0100107C010920F01E1ECF0E080818F7DE7
S11301E08083FF91EF919F918F910F900FBE0F909D
S11301F01F9018951F920F920FB60F9211248F9390
S11302008091C6008F910F900FBE0F901F9018958C
S11302101092C50087E68093C400109210011092DA
S11302200F01E0ECF0E080818D7F8083E1ECF0E071
S113023088E9808386E08093C20080818F7D8083FB
S1130240789408959C0190910F0191110FC06093CF
S11302500F011092100130930E0120930D01E1EC77
S1130260F0E080818062808380E008958FEF0895BC
S113027084B5826084BD78948FE286BD089510921F
S11302801C018AE0809300018FE286BDEEE6F0E077
S1130290808181608083E1E1F1E081E08483838176
S11302A0882331F180912101E0912301F09124010F
S11302B0E80FF11D80911F018083809122018F5FDF
S11302C080932201809121018F5F8093210180918D
S11302D01F012091200190E0820F911D8093200145
S11302E080912201853149F581E0809317010895B9
S11302F080912501E0912701F0912801E80FF11D7B
S113030080911F018083809126018F5F8093260155
S1130310809125018F5F8093250180911F01209199
S1130320200190E0820F911D80932001809126018D
S1130330853119F481E0809317010895809120019B
S113034081958093CE00E1E1F1E0128281E0878320
S113035008951F920F920FB60F9211242F933F937B
S11303604F935F936F937F938F939F93AF93BF93B9
S1130370EF93FF938091290190912A018917D8F472
S1130380E0912B01F0912C01E80FF11D8081809305
S1130390CE008091290120912001E0912B01F09160
S11303A02C01E80FF11D9081920F909320018F5F33
S11303B08093290109C010922A01E9ECF0E08081C0
S11303C08F7D80830E949E01FF91EF91BF91AF9139
S11303D09F918F917F916F915F914F913F912F9159
S11303E00F900FBE0F901F90189580911E018F5F84
S11303F080931E0180911E018770809300018FE21B
S113040086BDEEE6F0E080818160808308951F92CE
S11304100F920FB60F9211242F933F934F935F9334
S11304206F937F938F939F93AF93BF93EF93FF93B8
S11304308091CE0080931F0180911201882349F09E
S113044080911801882339F0E1E1F1E011821782EB
S113045002C00E943F01809113018823D1F0809152
S11304601901811111C015C0E1E1F1E081E081833E
S11304701086E9ECF0E08081806280830AC01092EB
S113048019010E94F50105C080911F018038B9F758
S1130490EBCFFF91EF91BF91AF919F918F917F919E
S11304A06F915F914F913F912F910F900FBE0F90DD
S11304B01F9018951092290110922A01109225017B
S11304C0109221011092200110921F0110921E011E
S11304D010921D011092CD0087E68093CC00E8ECC9
S11304E0F0E080818D7F8083E9ECF0E088E980830F
S11304F086E08093CA0080818F7D808378940E94F7
S113050038010895E1E1F1E081E082838481811181
S11305100CC08091C800882344F080E88093CE000A
S11305208093200181E0808380870895E1E1F1E0F8
S113053014828285882321F00E94820210921B017A
S113054080911201811144C085E180931D011092B4
S1130550170180912001882319F081E0809316010E
S1130560809114018823D1F0E1E1F1E0138210922B
S11305702501109226018281882351F110921C01D9
S113058088E0809300018FE286BDEEE6F0E0808192
S11305908160808381E080931B010895E1E1F1E0B3
S11305A081E08383109221011092220182818823A9
S11305B079F010921C0188E0809300018FE286BDDF
S11305C0EEE6F0E080818160808381E080931B010E
S11305D008951F920F920FB60F9211242F933F93F9
S11305E04F935F936F937F938F939F93AF93BF9337
S11305F0EF93FF938FE286BD80911C018F5F809300
S11306001C0190911C0180910001981309C0EEE631
S1130610F0E080818E7F808310921C010E949602FC
S1130620FF91EF91BF91AF919F918F917F916F91C6
S11306305F914F913F912F910F900FBE0F901F909C
S10906401895F894FFCFA9
S10B06460168656C6C6F0A0089
S9030000FC
