:100000000C944A000C945C000C945C000C945C0012
:100010000C945C000C945C000C945C000C945C00F0
:100020000C945C000C945C000C94FE020C945C003C
:100030000C945C000C945C000C945C000C945C00D0
:100040000C945C000C9434020C945C000C945C00E6
:100050000C945C000C94AF020C947F020C945C0036
:100060000C945C000C945C000C945C000C945C00A0
:100070000C945C000C945C000C945C000C945C0090
:100080000C9415010C949D000C945C000C945C0085
:100090000C945C0011241FBECFEFD0E1DEBFCDBFBA
:1000A00021E0A0E0B1E001C01D92A73BB207E1F75B
:1000B0000E946C020C9477030C94000084B582605B
:1000C00084BDEEE6F0E080818E7F80838FE286BD86
:1000D000089581E08093030110920B018AE08093E0
:1000E0000C018FE286BDEEE6F0E0808181608083C6
:1000F000E0912F01F0E080910E01EF5CFE4F8083D4
:10010000809130018F5F8093300180912F018F5F4C
:1001100080932F0190910E0180910F01890F8093A0
:100120000F01089580910F0181958093CE00E0E04A
:10013000F1E0118281E0858308951F920F920FB63E
:100140000F9211242F933F934F935F936F937F935D
:100150008F939F93AF93BF93EF93FF939091500131
:1001600080914F018917F8F480914F01E09151017E
:10017000F0915201E80FF11D80818093CE008091B3
:100180004F0190910F01E0915101F0915201E80F60
:10019000F11D8081890F80930F0180914F018F5F46
:1001A00080934F0109C010925001E9ECF0E080818A
:1001B0008F7D80830E949200FF91EF91BF91AF915C
:1001C0009F918F917F916F915F914F913F912F916F
:1001D0000F900FBE0F901F90189580910D018F5FAB
:1001E00080930D0180910D01813069F48AE0809344
:1001F0000C0110920B018FE286BDEEE6F0E08081EB
:1002000081608083089580910D01877080930C0137
:1002100010920B018FE286BDEEE6F0E080818160F6
:10022000808381E08093070108951F920F920FB69B
:100230000F9211242F933F934F935F936F937F936C
:100240008F939F93AF93BF93EF93FF938091CE00D3
:1002500080930E01E0E0F1E01186178210920D010B
:100260008081882341F080910501882351F010821C
:100270001582108606C080910601811102C00E947D
:100280006900809101018823D1F0809106018111DC
:1002900011C015C0E0E0F1E081E080831682E9EC56
:1002A000F0E08081806280830AC0109206010E9483
:1002B000ED0005C080910E018038B9F7EBCFFF91BA
:1002C000EF91BF91AF919F918F917F916F915F91CE
:1002D0004F913F912F910F900FBE0F901F90189547
:1002E00010924F011092500110922F011092300184
:1002F00010920F0110920E0110920D01E0E0F1E05A
:10030000138211821682128611861782108210863D
:1003100015821092CD0087E68093CC00E8ECF0E0E7
:1003200080818D7F8083E9ECF0E088E9808386E03E
:100330008093CA0080818F7D80830E945E007894C4
:1003400008959C0190910101911124C06093500186
:1003500010924F0130935201209351018091080176
:10036000811104C080910301882321F081E08093F2
:100370000101089510920B018AE080930C018FE235
:1003800086BDEEE6F0E080818160808381E080932D
:100390000801ECCF089580910301811108C080E825
:1003A0008093CE0080930F0181E080930601089531
:1003B000E0E0F1E013828781882339F01092070191
:1003C00010920D010E94CB010895809109018823AC
:1003D00029F0109209010E94CB010895809100013B
:1003E000811141C080910F01811103C0109204015D
:1003F00003C081E08093040180913001882389F05B
:1004000080E090E0FC01EF5CFE4F2081FC01EF5E9C
:10041000FE4F208301962091300130E08217930730
:100420008CF380913001809310018091100188231A
:1004300019F081E080930A0110922F01109230018F
:1004400080910101882379F010920B0188E080935C
:100450000C018FE286BDEEE6F0E080818160808352
:1004600081E08093090108951F920F920FB60F92B9
:1004700011242F933F934F935F936F937F938F93A9
:100480009F93AF93BF93EF93FF938FE286BD8091CD
:100490000B018F5F80930B0190910B0180910C01F8
:1004A000981309C0EEE6F0E080818E7F8083109281
:1004B0000B010E94D801FF91EF91BF91AF919F91E5
:1004C0008F917F916F915F914F913F912F910F90FD
:1004D0000FBE0F901F9018950E9470010E945B0341
:1004E00063E571E084E591E00E9430038823C4F362
:1004F0006091530184E591E00E94A101F1CF1F9228
:100500000F920FB60F9211248F939F93EF93FF9347
:100510009091B5018091B601891788F48091B60158
:10052000E091B301F091B401E80FF11D8081809357
:10053000C6008091B6018F5F8093B60107C010920C
:10054000B501E1ECF0E080818F7D8083FF91EF9138
:100550009F918F910F900FBE0F901F9018951F9233
:100560000F920FB60F9211248F93EF93FF93809108
:10057000C600E0919401F0E0EB56FE4F808380913D
:1005800094018F5F809394018FE28093B200109268
:100590007201E0E7F0E0808181608083FF91EF915C
:1005A0008F910F900FBE0F901F90189581E0809350
:1005B0007301E0E7F0E080818E7F80838091940179
:1005C000882389F080E090E0FC01EB56FE4F20810B
:1005D000FC01EB58FE4F208301962091940130E0FE
:1005E000821793078CF380919401809393018091FB
:1005F0009301809374011092940108951F920F92B9
:100600000FB60F9211242F933F934F935F936F93E5
:100610007F938F939F93AF93BF93EF93FF938FE25B
:100620008093B200809172018F5F809372018091FC
:1006300072018A3021F4109272010E94D602FF9159
:10064000EF91BF91AF919F918F917F916F915F914A
:100650004F913F912F910F900FBE0F901F901895C3
:10066000209173012223E1F0109273012091740113
:10067000222381F0E82FF92F80E090E0DC01AB58D5
:10068000BE4F2C91219301962091740130E0821786
:100690009307A4F380917401FB01808380E00895A7
:1006A0008FEF0895E0EBF0E08081826080838FE23D
:1006B0008093B20008951092C50087E68093C4002D
:1006C0001092B5011092B601E0ECF0E080818D7FD0
:1006D0008083E1ECF0E088E9808386E08093C200CB
:1006E00080818F7D80830E94520378940895F894CE
:0206F000FFCF3A
:00000001FF
