S01700004A313730385F696E746572666163652E73726563E3
S11300000C944A000C9467000C9467000C946700ED
S11300100C9467000C9467000C9467000C946700C0
S11300200C9467000C9467000C940B010C9467000B
S11300300C9467000C9467000C9467000C946700A0
S11300400C9467000C9459030C9467000C9467009B
S11300500C9467000C94BC000C948C000C94670006
S11300600C9467000C9467000C9467000C94670070
S11300700C9467000C9467000C9467000C94670060
S11300800C9448020C94D4010C9467000C946700FF
S11300900C94670011241FBECFEFD0E1DEBFCDBFAB
S11300A011E0A0E0B1E0EAE6F7E002C005900D92AD
S11300B0A230B107D9F721E0A2E0B1E001C01D925E
S11300C0A73DB207E1F70E9469000C94B3030C94B6
S11300D000000E94A3020E947E0162E071E083E0BE
S11300E091E00E945301D82F61E271E082E291E035
S11300F00E949103C82FDD2334F06091020183E054
S113010091E00E94C902CC2344F36091210182E270
S113011091E00E943D01E1CF1F920F920FB60F9222
S113012011248F939F93EF93FF9390918301809178
S11301308401891788F480918401E0918101F09110
S11301408201E80FF11D80818093C60080918401B3
S11301508F5F8093840107C010928301E1ECF0E08B
S113016080818F7D8083FF91EF919F918F910F907C
S11301700FBE0F901F9018951F920F920FB60F92FB
S113018011248F93EF93FF938091C600E091620155
S1130190F0E0ED59FE4F8083809162018F5F809380
S11301A062018FE28093B20010924001E0E7F0E038
S11301B0808181608083FF91EF918F910F900FBEBA
S11301C00F901F90189581E080934101E0E7F0E0E3
S11301D080818E7F808380916201882389F080E012
S11301E090E0FC01ED59FE4F2081FC01ED5BFE4FD8
S11301F0208301962091620130E0821793078CF3EB
S11302008091620180936101809161018093420138
S11302101092620108951F920F920FB60F9211244B
S11302202F933F934F935F936F937F938F939F93FA
S1130230AF93BF93EF93FF938FE28093B2008091CB
S113024040018F5F80934001809140018A3021F406
S1130250109240010E94E300FF91EF91BF91AF9192
S11302609F918F917F916F915F914F913F912F91CA
S11302700F900FBE0F901F9018959C0190918301D1
S113028091110FC060938301109284013093820115
S113029020938101E1ECF0E080818062808380E042
S11302A008958FEF0895209141012223E1F01092E7
S11302B0410120914201222381F0E82FF92F80E0AF
S11302C090E0DC01AD5BBE4F2C912193019620910F
S11302D0420130E082179307A4F380914201FB01AD
S11302E0808380E008958FEF0895E0EBF0E0808153
S11302F0826080838FE28093B20008951092C500DB
S113030087E68093C4001092830110928401E0EC8C
S1130310F0E080818D7F8083E1ECF0E088E98083E8
S113032086E08093C20080818F7D80830E94750166
S11303307894089584B5826084BD8FE286BD089563
S113034081E080938801109290018AE080930001FB
S11303508FE286BDEEE6F0E0808181608083E091EB
S1130360B301F0E080919201EB54FE4F80838091C1
S1130370B4018F5F8093B4018091B3018F5F809348
S1130380B3019091920180919301890F809393011D
S113039008958091930181958093CE00E5E8F1E082
S11303A0118281E0858308951F920F920FB60F92F8
S11303B011242F933F934F935F936F937F938F9366
S11303C09F93AF93BF93EF93FF938091D301909149
S11303D0D4018917D8F4E091D501F091D601E80F42
S11303E0F11D80818093CE008091D30120919301EF
S11303F0E091D501F091D601E80FF11D9081920FA3
S1130400909393018F5F8093D30109C01092D4011C
S1130410E9ECF0E080818F7D80830E94C901FF9127
S1130420EF91BF91AF919F918F917F916F915F9168
S11304304F913F912F910F900FBE0F901F901895E1
S1130440809191018F5F809391018091910181301E
S113045069F48AE080930001109290018FE286BDD6
S1130460EEE6F0E0808181608083089580919101BF
S1130470877080930001109290018FE286BDEEE6B2
S1130480F0E080818160808381E080938C01089515
S11304901F920F920FB60F9211242F933F934F93F5
S11304A05F936F937F938F939F93AF93BF93EF93D8
S11304B0FF938091CE0080939201E5E8F1E01186EC
S11304C01782109291018081882341F080918A01E2
S11304D0882351F010821582108606C080918B010A
S11304E0811102C00E94A001809186018823D1F06D
S11304F080918B01811111C015C0E5E8F1E081E024
S113050080831682E9ECF0E08081806280830AC0F7
S113051010928B010E94200205C0809192018038C4
S1130520B9F7EBCFFF91EF91BF91AF919F918F916D
S11305307F916F915F914F913F912F910F900FBEDB
S11305400F901F9018951092D3011092D40110921D
S1130550B3011092B401109293011092920110927F
S113056091011092CD0087E68093CC00E8ECF0E096
S113057080818D7F8083E9ECF0E088E9808386E0E8
S11305808093CA0080818F7D808378940E949A0131
S113059008959C0190918601911124C06093D40127
S11305A01092D3013093D6012093D50180918D010F
S11305B0811104C080918801882321F081E0809317
S11305C086010895109290018AE0809300018FE2E1
S11305D086BDEEE6F0E080818160808381E08093D7
S11305E08D01ECCF08958091880181110CC0809118
S11305F0C800882344F080E88093CE008093930160
S113060081E080938B010895E5E8F1E0138287810E
S1130610882339F00E94F30210928C011092910108
S1130620089580918E01882329F00E94F30210928C
S11306308E0108958091850181113AC080919301C2
S1130640811103C01092890103C081E08093890164
S11306508091B401882389F080E090E0FC01EB54A0
S1130660FE4F2081FC01EB56FE4F20830196209122
S1130670B40130E0821793078CF38091B401809326
S113068094011092B3011092B401809186018823E1
S113069079F01092900188E0809300018FE286BD8A
S11306A0EEE6F0E080818160808381E080938E01BA
S11306B008951F920F920FB60F9211242F933F9318
S11306C04F935F936F937F938F939F93AF93BF9356
S11306D0EF93FF938FE286BD809190018F5F8093AB
S11306E090019091900180910001981309C0EEE669
S11306F0F0E080818E7F8083109290010E94040339
S1130700FF91EF91BF91AF919F918F917F916F91E5
S11307105F914F913F912F910F900FBE0F901F90BB
S1130720189520918F012223E1F020919401222336
S113073081F0E82FF92F80E090E0DC01AB56BE4F4A
S11307402C91219301962091940130E08217930714
S1130750A4F380919401FB01808310928F0180E0C7
S10D076008958FEF0895F894FFCF79
S105076A010088
S9030000FC
