S01700004A313730385F696E746572666163652E73726563E3
S11300000C944A000C9467000C9467000C946700ED
S11300100C9467000C9467000C9467000C946700C0
S11300200C9467000C9467000C9403030C94670011
S11300300C9467000C9467000C9467000C946700A0
S11300400C9467000C943F020C9467000C946700B6
S11300500C9467000C94B9020C9489020C94670008
S11300600C9467000C9467000C9467000C94670070
S11300700C9467000C9467000C9467000C94670060
S11300800C9420010C94A8000C9467000C94670055
S11300900C94670011241FBECFEFD0E1DEBFCDBFAB
S11300A011E0A0E0B1E0E6E0F7E002C005900D92B7
S11300B0A630B107D9F721E0A6E0B1E001C01D9256
S11300C0AD3BB207E1F70E9477020C9481030C94D4
S11300D0000084B5826084BDEEE6F0E080818E7F0E
S11300E080838FE286BD089581E080930901109298
S11300F011018AE0809312018FE286BDEEE6F0E002
S1130100808181608083E0913501F0E08091140169
S1130110E95CFE4F8083809136018F5F80933601C6
S1130120809135018F5F8093350190911401809106
S11301301501890F8093150108958091150181950A
S11301408093CE00E6E0F1E0118281E0858308959A
S11301501F920F920FB60F9211242F933F934F9338
S11301605F936F937F938F939F93AF93BF93EF931B
S1130170FF9390915601809155018917F8F480916D
S11301805501E0915701F0915801E80FF11D80816C
S11301908093CE008091550190911501E091570113
S11301A0F0915801E80FF11D8081890F80931501AA
S11301B0809155018F5F8093550109C010925601BB
S11301C0E9ECF0E080818F7D80830E949D00FF91A7
S11301D0EF91BF91AF919F918F917F916F915F91BB
S11301E04F913F912F910F900FBE0F901F90189534
S11301F0809113018F5F80931301809113018130EB
S113020069F48AE080931201109211018FE286BD95
S1130210EEE6F0E08081816080830895809113018F
S1130220877080931201109211018FE286BDEEE671
S1130230F0E080818160808381E080930D010895E6
S11302401F920F920FB60F9211242F933F934F9347
S11302505F936F937F938F939F93AF93BF93EF932A
S1130260FF938091CE0080931401E6E0F1E01186C3
S11302701782109213018081882341F080910B0131
S1130280882351F010821582108606C080910C01DB
S1130290811102C00E947400809107018823D1F06B
S11302A080910C01811111C015C0E6E0F1E081E0FC
S11302B080831682E9ECF0E08081806280830AC04A
S11302C010920C010E94F80005C08091140180383E
S11302D0B9F7EBCFFF91EF91BF91AF919F918F91C0
S11302E07F916F915F914F913F912F910F900FBE2E
S11302F00F901F901895109255011092560110926C
S113030035011092360110921501109214011092C9
S11303101301E6E0F1E0138211821682128611863F
S113032017821082108615821092CD0087E6809382
S1130330CC00E8ECF0E080818D7F8083E9ECF0E094
S113034088E9808386E08093CA0080818F7D8083E2
S11303500E946900789408959C019091070191117D
S113036024C0609356011092550130935801209394
S1130370570180910E01811104C0809109018823E5
S113038021F081E0809307010895109211018AE021
S1130390809312018FE286BDEEE6F0E080818160F9
S11303A0808381E080930E01ECCF08958091090150
S11303B0811108C080E88093CE008093150181E00C
S11303C080930C010895E6E0F1E01382878188238D
S11303D039F010920D01109213010E94D601089574
S11303E080910F01882329F010920F010E94D601F9
S11303F0089580910601811141C0809115018111F8
S113040003C010920A0103C081E080930A01809125
S11304103601882389F080E090E0FC01E95CFE4F1E
S11304202081FC01E95EFE4F208301962091360174
S113043030E0821793078CF3809136018093160184
S113044080911601882319F081E0809310011092A5
S113045035011092360180910701882379F01092BA
S1130460110188E0809312018FE286BDEEE6F0E090
S113047080818160808381E080930F0108951F92C1
S11304800F920FB60F9211242F933F934F935F93C4
S11304906F937F938F939F93AF93BF93EF93FF9348
S11304A08FE286BD809111018F5F8093110190913D
S11304B0110180911201981309C0EEE6F0E08081E9
S11304C08E7F8083109211010E94E301FF91EF91CE
S11304D0BF91AF919F918F917F916F915F914F9158
S11304E03F912F910F900FBE0F901F9018950E946F
S11304F07B010E94650369E571E08AE591E00E9451
S11305003A038111F8CF64E080E091E00E94AC01ED
S1130510F2CF1F920F920FB60F9211248F939F93D5
S1130520EF93FF939091BB018091BC01891788F4EC
S11305308091BC01E091B901F091BA01E80FF11D7D
S113054080818093C6008091BC018F5F8093BC0141
S113055007C01092BB01E1ECF0E080818F7D8083C5
S1130560FF91EF919F918F910F900FBE0F901F906D
S113057018951F920F920FB60F9211248F93EF9339
S1130580FF938091C600E0919A01F0E0E556FE4F9A
S1130590808380919A018F5F80939A018FE2809388
S11305A0B20010927801E0E7F0E0808181608083FE
S11305B0FF91EF918F910F900FBE0F901F901895A0
S11305C081E08093790180919A01882389F080E009
S11305D090E0FC01E556FE4F2081FC01E558FE4FFA
S11305E02083019620919A0130E0821793078CF3BF
S11305F080919A01809399018091990180937A0165
S113060010929A0108951F920F920FB60F9211241F
S11306102F933F934F935F936F937F938F939F9306
S1130620AF93BF93EF93FF938FE28093B2008091D7
S113063078018F5F80937801809178018A3049F442
S113064010927801E0E7F0E080818E7F80830E9441
S1130650E002FF91EF91BF91AF919F918F917F91B4
S11306606F915F914F913F912F910F900FBE0F901B
S11306701F901895209179012223E1F010927901BD
S113068020917A01222381F0E82FF92F80E090E075
S1130690DC01A558BE4F2C912193019620917A013B
S11306A030E082179307A4F380917A01FB018083E1
S11306B080E008958FEF0895E0EBF0E080818260A0
S11306C080838FE28093B20008951092C50087E67C
S11306D08093C4001092BB011092BC01E0ECF0E0E6
S11306E080818D7F8083E1ECF0E088E9808386E07F
S11306F08093C20080818F7D80830E945C03789404
S10907000895F894FFCFF8
S1090706414243440000DF
S9030000FC
