S01200005541525473616D706C652E7372656354
S11300000C944A000C9467000C9467000C946700ED
S11300100C9467000C9467000C9467000C946700C0
S11300200C9467000C9467000C9478000C9467009F
S11300300C9467000C9467000C9467000C946700A0
S11300400C9467000C94BC020C9467000C94670039
S11300500C9467000C94FA000C94CC000C94670088
S11300600C9467000C9467000C9467000C94670070
S11300700C9467000C9467000C9467000C94670060
S11300800C94FC010C949E010C9467000C94670082
S11300900C94670011241FBECFEFD0E1DEBFCDBFAB
S11300A011E0A0E0B1E0ECEEF5E002C005900D92A5
S11300B0A830B107D9F721E0A8E0B1E001C01D9252
S11300C0AB32B207E1F70E94BA000C94F4020C942C
S11300D00000E0EBF0E0808182608083E0E7F0E004
S11300E080818160808378948FE28093B200089548
S11300F01F920F920FB60F9211242F938F939F93F9
S1130100AF93BF938FE28093B200809109019091E5
S11301100A01A0910B01B0910C010196A11DB11D22
S11301208093090190930A01A0930B01B0930C01F1
S11301308091090190910A01A0910B01B0910C01E9
S1130140833A9E41A105B10559F481E080930801E9
S11301501092090110920A0110920B0110920C01E5
S1130160BF91AF919F918F912F910F900FBE0F90E0
S11301701F9018950E9469000E944F020E94080176
S1130180809108018823E1F366E080E091E00E9419
S1130190220110920801F4CF1F920F920FB60F9212
S11301A011248F939F93EF93FF938091100190916B
S11301B00F01891778F4E0910D01F0910E01E80F19
S11301C0F11D80818093C600809110018F5F809320
S11301D0100107C010920F01E1ECF0E080818F7DE7
S11301E08083FF91EF919F918F910F900FBE0F909D
S11301F01F9018951F920F920FB60F9211248F9390
S11302008091C6008F910F900FBE0F901F9018958C
S11302101092C50087E68093C400109210011092DA
S11302200F01E0ECF0E080818D7F8083E1ECF0E071
S113023088E9808386E08093C20080818F7D8083FB
S1130240789408959C0190910F0191110FC06093CF
S11302500F011092100130930E0120930D01E1EC77
S1130260F0E080818062808380E008958FEF0895BC
S113027010921A018AE0809307018FE286BDEEE6B0
S1130280F0E0808181608083E1E1F1E081E08483BA
S11302908381882321F180911F01E0912101F09154
S11302A02201E80FF11D80911D01808380912001BE
S11302B08F5F8093200180911F018F5F80931F01C6
S11302C090911D0180911E01890F80931E018091E0
S11302D02001853139F581E08093170108958091DB
S11302E02301E0912501F0912601E80FF11D809191
S11302F01D018083809124018F5F8093240180916C
S113030023018F5F8093230190911D0180911E0131
S1130310890F80931E0180912401853119F481E0B5
S113032080931701089580911E0181958093CE00DA
S1130330E1E1F1E0128281E0878308951F920F9238
S11303400FB60F9211242F933F934F935F936F93A4
S11303507F938F939F93AF93BF93EF93FF9380917A
S11303602701909128018917D8F4E0912901F0918F
S11303702A01E80FF11D80818093CE00809127012E
S113038020911E01E0912901F0912A01E80FF11D4D
S11303909081920F90931E018F5F8093270109C073
S11303A010922801E9ECF0E080818F7D80830E9427
S11303B09301FF91EF91BF91AF919F918F917F91A5
S11303C06F915F914F913F912F910F900FBE0F90BE
S11303D01F90189580911C018F5F80931C01809160
S11303E01C018770809307018FE286BDEEE6F0E082
S11303F080818160808308951F920F920FB60F92BF
S113040011242F933F934F935F936F937F938F9315
S11304109F93AF93BF93EF93FF938091CE0080930C
S11304201D0180911201882349F0809118018823CD
S113043039F0E1E1F1E01182178202C00E94380133
S1130440809113018823D1F080911901811111C089
S113045015C0E1E1F1E081E081831086E9ECF0E090
S11304608081806280830AC0109219010E94EA018F
S113047005C080911D018038B9F7EBCFFF91EF9152
S1130480BF91AF919F918F917F916F915F914F91A8
S11304903F912F910F900FBE0F901F9018951092BF
S11304A02701109228011092230110921F0110922B
S11304B01E0110921D0110921C0110921B0110923A
S11304C0CD0087E68093CC00E8ECF0E080818D7F5E
S11304D08083E9ECF0E088E9808386E08093CA00B9
S11304E080818F7D808378940895E1E1F1E081E05B
S11304F08283848181110CC08091C800882344F0D8
S113050080E88093CE0080931E0181E08083808701
S11305100895E1E1F1E014828181882319F00E94B9
S11305207502089585E180931B0110921701809153
S11305301E01882319F081E0809316018091140133
S1130540882369F0E1E1F1E0138210922301109213
S113055024018281882379F00E9475020895E1E1E3
S1130560F1E081E0838310921F01109220018281C7
S113057081110E94750208951F920F920FB60F9277
S113058011242F933F934F935F936F937F938F9394
S11305909F93AF93BF93EF93FF938FE286BD8091B8
S11305A01A018F5F80931A0190911A0180910701BB
S11305B0981309C0EEE6F0E080818E7F808310926C
S11305C01A010E948902FF91EF91BF91AF919F910F
S11305D08F917F916F915F914F913F912F910F90E8
S10F05E00FBE0F901F901895F894FFCFE9
S10B05EC48656C6C6F0A000104
S9030000FC
