:100000000C944A000C9467000C9467000C946700F1
:100010000C9467000C9467000C9467000C946700C4
:100020000C9467000C9467000C9467000C946700B4
:100030000C9467000C9467000C9467000C946700A4
:100040000C9467000C9467000C9467000C94670094
:100050000C9467000C94A2000C9474000C9467003C
:100060000C9467000C9467000C9467000C94670074
:100070000C9467000C9467000C9467000C94670064
:100080000C94FE000C94D0000C9467000C94670054
:100090000C94670011241FBECFEFD0E1DEBFCDBFAF
:1000A00011E0A0E0B1E0ECE5F2E002C005900D92B5
:1000B000A030B107D9F721E0A0E0B1E001C01D9266
:1000C000A930B207E1F70E9469000C942C010C944E
:1000D00000000E9412010E94B60080910001882356
:1000E000E1F310920001F9CF1F920F920FB60F9219
:1000F00011248F939F93EF93FF938091040190912C
:100100000301891778F4E0910101F0910201E80FF1
:10011000F11D80818093C600809104018F5F8093E0
:10012000040107C010920301E1ECF0E080818F7DB3
:100130008083FF91EF919F918F910F900FBE0F9051
:100140001F9018951F920F920FB60F9211248F9344
:10015000EF93FF93E6ECF0E080818083FF91EF91D5
:100160008F910F900FBE0F901F9018951092C500A1
:1001700087E68093C4001092040110920301E0EC22
:10018000F0E080818D7F8083E1ECF0E088E980837E
:1001900086E08093C20080818F7D8083789408956B
:1001A0001F920F920FB60F9211248F939F93EF938C
:1001B000FF938091080190910701891778F4E091ED
:1001C0000501F0910601E80FF11D80818093CE00BA
:1001D000809108018F5F8093080107C0109207018A
:1001E000E9ECF0E080818F7D8083FF91EF919F911A
:1001F0008F910F900FBE0F901F9018951F920F9226
:100200000FB60F9211248F93EF93FF93EEECF0E073
:1002100080818083FF91EF918F910F900FBE0F909F
:100220001F9018951092CD0087E68093CC00109215
:10023000080110920701E8ECF0E080818D7F808357
:10024000E9ECF0E088E9808386E08093CA00808151
:0C0250008F7D808378940895F894FFCF90
:00000001FF
