:100000000C944A000C9467000C9467000C946700F1
:100010000C9467000C9467000C9467000C946700C4
:100020000C9467000C9467000C9467000C946700B4
:100030000C9467000C9467000C9467000C946700A4
:100040000C9467000C9474000C9467000C94670087
:100050000C9467000C94F8000C94CA000C94670090
:100060000C9467000C9467000C9467000C94670074
:100070000C9467000C9467000C9467000C94670064
:100080000C9464010C9436010C9467000C94670086
:100090000C94670011241FBECFEFD0E1DEBFCDBFAF
:1000A00011E0A0E0B1E0E8E4F3E002C005900D92B9
:1000B000A830B107D9F721E0A8E0B1E001C01D9256
:1000C000A531B207E1F70E94B3000C94A2010C9491
:1000D000000084B5826084BDEEE6F0E0808181603E
:1000E0008083789416BC08951F920F920FB60F92DA
:1000F00011242F938F939F93AF93BF938091090106
:1001000090910A01A0910B01B0910C010196A11DE3
:10011000B11D8093090190930A01A0930B01B09344
:100120000C018091090190910A01A0910B01B091FD
:100130000C01833A9E41A105B10559F481E08093F9
:1001400008011092090110920A0110920B011092FD
:100150000C01BF91AF919F918F912F910F900FBE86
:100160000F901F9018950E9469000E9472010E94D2
:100170000601809108018823E1F366E080E091E0C8
:100180000E94200166E080E091E00E948C011092C4
:100190000801EFCF1F920F920FB60F9211248F9389
:1001A0009F93EF93FF938091100190910F01891716
:1001B00078F4E0910D01F0910E01E80FF11D8081BE
:1001C0008093C600809110018F5F8093100107C05B
:1001D00010920F01E1ECF0E080818F7D8083FF9130
:1001E000EF919F918F910F900FBE0F901F901895D8
:1001F0001F920F920FB60F9211248F938091C60019
:100200008F910F900FBE0F901F9018951092C50000
:1002100087E68093C4001092100110920F01E0EC69
:10022000F0E080818D7F8083E1ECF0E088E98083DD
:1002300086E08093C20080818F7D808378940895CA
:100240009C0190910F0191110FC060930F011092CA
:10025000100130930E0120930D01E1ECF0E080815C
:100260008062808380E008958FEF08951F920F923F
:100270000FB60F9211248F939F93EF93FF9380916A
:10028000140190911301891778F4E0911101F09114
:100290001201E80FF11D80818093CE00809114013E
:1002A0008F5F8093140107C010921301E9ECF0E016
:1002B00080818F7D8083FF91EF919F918F910F902F
:1002C0000FBE0F901F9018951F920F920FB60F92AE
:1002D00011248F938091CE008F910F900FBE0F90BD
:1002E0001F9018951092CD0087E68093CC00109255
:1002F000140110921301E8ECF0E080818D7F80837F
:10030000E9ECF0E088E9808386E08093CA00808190
:100310008F7D8083789408959C01909113019111B1
:100320000FC06093130110921401309312012093B7
:100330001101E9ECF0E080818062808380E0089523
:080340008FEF0895F894FFCF40
:0803480048656C6C6F0A0000AF
:00000001FF
